:1000000059C0000077C600009CC600007BC00000FD
:1000100079C0000077C0000075C000000C94600A31
:1000200071C000006FC000006DC000006BC0000018
:1000300069C000000C94C60A65C0000063C00000DF
:10004000A7C600005FC000000C94BE080C94F00826
:1000500059C0000057C0000055C0000053C0000048
:1000600051C000004FC00000000000080002010065
:100070000003040700000000000000000102040863
:100080001020408001020408102001020408102002
:10009000040404040404040402020202020203032E
:1000A0000303030300000000250028002B000200CA
:1000B0001509810911241FBECFEFD8E0DEBFCDBFE7
:1000C00011E0A0E0B1E0E4EFFAE102C005900D928A
:1000D000A63BB107D9F723E0A6EBB1E001C01D9222
:1000E000A13DB207E1F710E0CAE5D0E004C02197D6
:1000F000FE010E94720DC835D107C9F70E94640B3A
:100100000C94780D7DCFFC0191E08091D302811198
:1001100090E0918308954F925F926F927F928F92B9
:100120009F92AF92BF92CF92DF92EF92FF920F9386
:100130001F93CF93DF93CDB7DEB72C970FB6F8940C
:10014000DEBF0FBECDBF8091D3028F5F8C3018F41D
:100150008093D30202C01092D3028090D802909074
:10016000D902A090DA02B090DB028091C003909196
:10017000C103A091C203B091C30348E150E060E025
:1001800070E0481B590B6A0B7B0B4230510561052F
:10019000710594F44130510561057105A1F4FC012C
:1001A0003296EE0FFF1FEE0FFF1FE852FD4F8082C9
:1001B0009182A282B38207C06C017D0148E150E0C8
:1001C00060E070E005C0AC01BD01C12CD12C76010E
:1001D0009601220F331F220F331F612C712CC12C6B
:1001E000D12C76014751510961097109E4E06E0E85
:1001F000711CC416D506E606F70684F48301020FC7
:10020000131F08521D4FF80184829582A682B7827F
:10021000FFEFCF1ADF0AEF0AFF0AE8CFAC01BD01FA
:100220004F5F5F4F6F4F7F4F48315105610571053B
:100230004CF44093C0035093C1036093C203709386
:10024000C3030BC04797A109B1098093C0039093E2
:10025000C103A093C203B093C30380914003909164
:100260004103A0914203B091430389839A83AB83F6
:10027000BC838091440390914503A0914603B091C3
:1002800047038D839E83AF83B88780904803909007
:100290004903A0904A03B0904B038092440390928C
:1002A0004503A0924603B09247034090D402509079
:1002B000D5026090D6027090D70220912201309131
:1002C00023014091240150912501C301B2010E94F4
:1002D000ED0C6B017C0120912A0130912B014091A2
:1002E0002C0150912D01C501B4010E94ED0C9B0120
:1002F000AC01C701B6010E94A70B6B017C012091E4
:100300002E0130912F0140913001509131016D81CA
:100310007E818F8198850E94ED0C9B01AC01C70105
:10032000B6010E94A70B69877A878B879C876093A9
:1003300048037093490380934A0390934B03C09002
:100340004C03D0904D03E0904E03F0904F03C092C9
:100350004003D0924103E0924203F0924303209184
:100360003201309133014091340150913501C50182
:10037000B4010E94ED0C29853A854B855C850E946D
:10038000A80B2D813E814F8158850E94A80B20919A
:1003900036013091370140913801509139010E9466
:1003A000ED0C4B015C0120913E0130913F014091E9
:1003B000400150914101C701B6010E94ED0C9B0123
:1003C000AC01C501B4010E94A70B4B015C01209157
:1003D00042013091430140914401509145016981AE
:1003E0007A818B819C810E94ED0C9B01AC01C5013F
:1003F000B4010E94A70B4B015C0160934C03709306
:100400004D0380934E0390934F032091460130910A
:1004100047014091480150914901C701B6010E942E
:10042000ED0CA50194010E94A80B29813A814B8112
:100430005C810E94A80B20914A0130914B014091B0
:100440004C0150914D010E94ED0C4B015C018091DB
:10045000C8039091C903A091CA03B091CB0348E1AE
:1004600050E060E070E0481B590B6A0B7B0B423098
:1004700051056105710594F441305105610571051F
:10048000A1F4FC017E96EE0FFF1FEE0FFF1FE85256
:10049000FD4F80829182A282B38207C06C017D01F0
:1004A00048E150E060E070E005C0AC01BD01C12C46
:1004B000D12C76018601000F111F000F111F20E0C3
:1004C00030E0C12CD12C76014751510961097109E5
:1004D0002C5F3F4FC416D506E606F7067CF4F901FB
:1004E000E00FF11FE45BFC4F80829182A282B38215
:1004F000EFEFCE1ADE0AEE0AFE0AEACFAC01BD012A
:100500004F5F5F4F6F4F7F4F483151056105710558
:100510004CF44093C8035093C9036093CA0370938B
:10052000CB030BC04797A109B1098093C8039093EF
:10053000C903A093CA03B093CB038091B0039091F9
:10054000B103A091B203B091B30389839A83AB83C3
:10055000BC838090B4039090B503A090B603B09094
:10056000B70320915A0130915B0140915C01509199
:100570005D01C301B2010E94ED0C6B017C01209171
:1005800056013091570140915801509159016981AC
:100590007A818B819C810E94ED0C9B01AC01C7018B
:1005A000B6010E94A70B6B017C0120916201309182
:1005B00063014091640150916501C501B4010E943D
:1005C000ED0C9B01AC01C701B6010E94A70B2B01EA
:1005D0003C016093B0037093B1038093B203909396
:1005E000B303C090B803D090B903E090BA03F09081
:1005F000BB038091BC039091BD03A091BE03B09159
:10060000BF038D839E83AF83B887209166013091AD
:100610006701409168015091690169817A818B81FC
:100620009C810E94ED0CA30192010E94A80BA501E0
:1006300094010E94A80B20916A0130916B014091B6
:100640006C0150916D010E94ED0C4B015C012091F9
:100650007201309173014091740150917501C7018D
:10066000B6010E94ED0C9B01AC01C501B4010E94D2
:10067000A70B4B015C0120917A0130917B014091E5
:100680007C0150917D016D817E818F8198850E94D2
:10069000ED0C9B01AC01C501B4010E94A70B4B01FD
:1006A0005C016093B8037093B9038093BA0390938D
:1006B000BB038091DC029091DD02A091DE02B0913B
:1006C000DF028093D8029093D902A093DA02B0930C
:1006D000DB0220917E0130917F0140918001509199
:1006E0008101C701B6010E94ED0CA50194010E9491
:1006F000A80B2D813E814F8158850E94A80B209127
:1007000082013091830140918401509185010E94C2
:10071000ED0C6093DC027093DD028093DE02909317
:10072000DF0289819A81AB81BC818093B40390936D
:10073000B503A093B603B093B703C092BC03D092A5
:10074000BD03E092BE03F092BF032C960FB6F8945F
:10075000DEBF0FBECDBFDF91CF911F910F91FF90F4
:10076000EF90DF90CF90BF90AF909F908F907F9051
:100770006F905F904F9008956F927F928F929F92AB
:10078000AF92BF92CF92DF92EF92FF920F931F939F
:10079000CF93DF938091C4039091C503A091C603CA
:1007A000B091C703B7FF0BC04896A11DB11D809340
:1007B000C4039093C503A093C603B093C70380916D
:1007C000C4039091C503A091C603B091C70348E14B
:1007D00050E060E070E08A019B01081B190B2A0BB6
:1007E0003B0B0D3011052105310594F5E0E7F2E0F2
:1007F000BC01660F771F660F771F40E050E0C12CE9
:10080000D12C76014C5F5F4FC016D106E206F3068D
:100810009CF4EA01C60FD71FC852DD4F8C809D8023
:10082000AE80BF8081929192A192B192CFEFCC1A0B
:10083000DC0AEC0AFC0AE6CF1092C4031092C5034E
:100840001092C6031092C7030C97A109B10907C003
:100850008CE090E0A0E0B0E000E010E09801609152
:10086000C4037091C503660F771F660F771F980149
:10087000220F331F220F331F40E050E0C12CD12C38
:100880007601C816D906EA06FB06D4F4FA01E20F8F
:10089000F31FE059FD4FEA01C60FD71FC852DD4FC5
:1008A00088849984AA84BB8480829182A282B38244
:1008B000EFEFCE1ADE0AEE0AFE0A4C5F5F4FE1CF81
:1008C0004091C4035091C5036091C6037091C70362
:1008D000840F951FA61FB71F8093C4039093C50371
:1008E000A093C603B093C703C0E7D2E0FE018081A6
:1008F0009181A281B381BF7781939193A193B193A9
:1009000002E0E03AF00799F78091CC039091CD0393
:10091000A091CE03B091CF03B7FF0BC04896A11DA5
:10092000B11D8093CC039093CD03A093CE03B093DD
:10093000CF038091CC039091CD03A091CE03B091D1
:10094000CF0348E150E060E070E08A019B01081BA2
:10095000190B2A0B3B0B0D301105210531059CF5B8
:10096000BC01660F771F660F771F40E050E0C12C77
:10097000D12C76014C5F5F4FC016D106E206F3061C
:10098000B4F4FA01E60FF71FE45BFC4F808091801E
:10099000A280B380FA01E059FD4F84A695A6A6A6D1
:1009A000B7A6EFEFCE1ADE0AEE0AFE0AE3CF1092E8
:1009B000CC031092CD031092CE031092CF030C976C
:1009C000A109B10907C08CE090E0A0E0B0E000E030
:1009D00010E098016091CC037091CD03660F771FF2
:1009E000660F771F9801220F331F220F331F40E03D
:1009F00050E0C12CD12C76014C5F5F4FC816D90650
:100A0000EA06FB06E4F4FA01E20FF31F8F01005936
:100A10001D4F38018A01060F171F045B1C4FF80198
:100A200080809180A280B380F30184A695A6A6A6BB
:100A3000B7A6FFEFCF1ADF0AEF0AFF0ADDCF40911A
:100A4000CC035091CD036091CE037091CF03840FFE
:100A5000951FA61FB71F8093CC039093CD03A0933F
:100A6000CE03B093CF03812C912CA12C80E8B82E1B
:100A7000750164018E0188A999A9AAA9BBA99C0145
:100A8000AD015F77C701B60163D66B017C01249687
:100A9000F8012081318142815381C501B40158D6CA
:100AA0004B015C01F2E0C03ADF0721F720910A0117
:100AB00030910B0140910C0150910D01C701B6011D
:100AC00088D787FD13C0A5019401C701B601A4D63C
:100AD00020910E0130910F014091100150911101B0
:100AE00078D787FD03C08091980101C080E0809392
:100AF000D003DF91CF911F910F91FF90EF90DF9086
:100B0000CF90BF90AF909F908F907F906F900895FF
:100B10000F931F931092D0021092D1021092D20222
:100B20001092D30288EFE8EDF2E0DF011D928A9582
:100B3000E9F71092D4021092D5021092D6021092C8
:100B4000D7021092D0038091120190911301A091CD
:100B50001401B09115018093D8029093D902A0930B
:100B6000DA02B093DB028093DC029093DD02A09363
:100B7000DE02B093DF028CE090E0A0E0B0E0809372
:100B8000C0039093C103A093C203B093C3038091A9
:100B90001A0190911B01A0911C01B0911D0180933D
:100BA000400390934103A0934203B0934303809189
:100BB0001E0190911F01A0912001B091210180930D
:100BC000440390934503A0934603B0934703809159
:100BD000260190912701A0912801B09129018093CD
:100BE000480390934903A0934A03B0934B03809129
:100BF0003A0190913B01A0913C01B0913D0180935D
:100C00004C0390934D03A0934E03B0934F03009178
:100C1000160110911701209118013091190140918E
:100C20004E0150914F016091500170915101E0EEE1
:100C3000F2E00193119321933193DF01A459BF4F47
:100C40004D935D936D937C931397B3E0E034FB0772
:100C500081F78CE090E0A0E0B0E08093C80390932F
:100C6000C903A093CA03B093CB0380915201909122
:100C70005301A0915401B09155018093B00390931A
:100C8000B103A093B203B093B30380915E0190913E
:100C90005F01A0916001B09161018093B4039093D2
:100CA000B503A093B603B093B70380916E01909102
:100CB0006F01A0917001B09171018093B80390937E
:100CC000B903A093BA03B093BB03809176019091CE
:100CD0007701A0917801B09179018093BC03909342
:100CE000BD03A093BE03B093BF031F910F9108955E
:100CF000089508951F920F920FB60F9211242F930B
:100D00003F934F935F936F937F938F939F93AF9393
:100D1000BF93EF93FF93E0919901F0919A010995A8
:100D2000FF91EF91BF91AF919F918F917F916F91C3
:100D30005F914F913F912F910F900FBE0F901F9099
:100D400018951F920F920FB60F9211242F933F9375
:100D50004F935F936F937F938F939F93AF93BF93C3
:100D6000EF93FF93E0919B01F0919C010995FF9116
:100D7000EF91BF91AF919F918F917F916F915F9113
:100D80004F913F912F910F900FBE0F901F9018958C
:100D90001F920F920FB60F9211242F933F938F93B0
:100DA0009F93AF93BF938091B7019091B801A091A9
:100DB000B901B091BA013091B60123E0230F2D376C
:100DC00020F40196A11DB11D05C026E8230F02964F
:100DD000A11DB11D2093B6018093B7019093B80176
:100DE000A093B901B093BA018091BB019091BC016D
:100DF000A091BD01B091BE010196A11DB11D8093CE
:100E0000BB019093BC01A093BD01B093BE01BF9103
:100E1000AF919F918F913F912F910F900FBE0F90A7
:100E20001F901895789484B5826084BD84B58160E4
:100E300084BD85B5826085BD85B5816085BDEEE6E2
:100E4000F0E0808181608083E1E8F0E010828081C1
:100E500082608083808181608083E0E8F0E080812F
:100E600081608083E1EBF0E0808184608083E0EB4F
:100E7000F0E0808181608083EAE7F0E08081846037
:100E80008083808182608083808181608083808193
:100E9000806880831092C1000895833081F028F427
:100EA000813099F08230A1F008958730A9F0883020
:100EB000B9F08430D1F4809180008F7D03C080919F
:100EC00080008F7780938000089584B58F7702C06B
:100ED00084B58F7D84BD08958091B0008F7703C065
:100EE0008091B0008F7D8093B00008951F93CF93C1
:100EF000DF93282F30E0F901E859FF4F8491F90181
:100F0000E458FF4FD491F901E057FF4FC491CC232F
:100F1000C1F0162F8111C1DFEC2FF0E0EE0FFF1FA3
:100F2000EC55FF4FA591B4918FB7F894111105C0FE
:100F30009C91ED2FE095E92302C0EC91ED2BEC9311
:100F40008FBFDF91CF911F910895FC01918D228D6C
:100F5000892F90E0805C9F4F821B91098F739927A6
:100F60000895FC01918D828D981731F0828DE80FE4
:100F7000F11D858D90E008958FEF9FEF0895FC019E
:100F8000918D828D981761F0828DDF01A80FB11DC0
:100F90005D968C91928D9F5F9F73928F90E00895E4
:100FA0008FEF9FEF0895FC01848DDF01A80FB11D25
:100FB000A35ABF4F2C91848D90E001968F7399278F
:100FC000848FA689B7892C93A089B1898C9180647C
:100FD0008C93938D848D981306C00288F389E02D3D
:100FE00080818F7D80830895CF93DF93EC01888D7E
:100FF0008823C1F0EA89FB89808185FD05C0A88925
:10100000B9898C9186FD0EC00FB607FCF5CF8081A3
:1010100085FFF2CFA889B9898C9185FFEDCFCE01EC
:10102000C2DFE8CFDF91CF910895EF92FF920F9347
:101030001F93CF93DF93EC0181E0888F9B8D8C8D84
:10104000981305C0E889F989808185FD23C0F62EB3
:101050000B8D10E00F5F1F4F0F731127E02E8C8D4B
:10106000E8120BC00FB607FCFACFE889F989808136
:1010700085FFF5CFCE0197DFF2CF8B8DFE01E80F14
:10108000F11DE35AFF4FF0820B8FEA89FB898081C3
:10109000806207C0EE89FF896083E889F9898081D1
:1010A0008064808381E090E0DF91CF911F910F9168
:1010B000FF90EF900895CF92DF92EF92FF921F93EF
:1010C000CF93DF93EC016A017B01122FE889F98944
:1010D00082E080834115514E61057105A9F060E001
:1010E00079E08DE390E0A7019601DAD4DA01C90135
:1010F0000197A109B109B695A79597958795AC0178
:10110000411580E15807A0F0E889F989108260E86C
:1011100074E88EE190E0A7019601C2D4BA01A9015A
:101120004150510961097109769567955795479521
:10113000EC85FD855083EE85FF854083188EEC8914
:10114000FD891083EA89FB89808180618083EA8937
:10115000FB89808188608083EA89FB89808180683F
:101160008083EA89FB8980818F7D8083DF91CF91A5
:101170001F91FF90EF90DF90CF9008951F920F92F4
:101180000FB60F9211242F938F939F93EF93FF939A
:10119000E091CF01F091D0018081E091D501F091F3
:1011A000D60182FD12C090818091D8018F5F8F732C
:1011B0002091D901821751F0E091D801F0E0E1547B
:1011C000FE4F958F8093D80101C08081FF91EF91F0
:1011D0009F918F912F910F900FBE0F901F90189598
:1011E0001F920F920FB60F9211242F933F934F939C
:1011F0005F936F937F938F939F93AF93BF93EF937F
:10120000FF938FEB91E0CFDEFF91EF91BF91AF9114
:101210009F918F917F916F915F914F913F912F910E
:101220000F900FBE0F901F901895EFEBF1E0138217
:10123000128288EE93E0A0E0B0E084839583A683D9
:10124000B78384EA91E09183808385EC90E0958771
:10125000848784EC90E09787868780EC90E0918B80
:10126000808B81EC90E0938B828B82EC90E0958B6D
:10127000848B86EC90E0978B868B118E128E138E6A
:10128000148E08958F929F92AF92BF92CF92DF9269
:10129000EF92FF920F931F93CF93DF937C018B010B
:1012A0006C0182E0C80ED11C4701E5E08E0E911C56
:1012B000C0E0D0E0F60161916F014AE050E0C80162
:1012C000C5D05C016EE2C80167D08A0D9B1DC80FB6
:1012D000D91FC814D90471F74AE050E0F7016581BD
:1012E000C801B4D08C0F9D1FDF91CF911F910F913A
:1012F000FF90EF90DF90CF90BF90AF909F908F9036
:101300000895ECE5F2E084EB91E091838083128212
:101310001382148215820895CF92DF92EF92FF928A
:101320000F931F93CF93DF936C017A018B01C0E081
:10133000D0E0CE15DF0589F0D8016D918D01D60181
:10134000ED91FC910190F081E02DC6010995892B6A
:1013500011F47E0102C02196ECCFC701DF91CF913D
:101360001F910F91FF90EF90DF90CF90089561153E
:10137000710579F0FB0101900020E9F73197AF0189
:10138000461B570BDC01ED91FC910280F381E02DAF
:10139000099480E090E00895DC01ED91FC910190CA
:1013A000F081E02D09944F925F926F927F92EF92BD
:1013B000FF920F931F93CF93DF93CDB7DEB7A19723
:1013C0000FB6F894DEBF0FBECDBF7C01FA01CB0192
:1013D00019A2223008F42AE08E010F5D1F4F422E21
:1013E000512C612C712CBF01A301920159D3F90139
:1013F000CA01015011096A3014F4605D01C0695CD2
:10140000D8016C93232B242B252B69F7B801C70136
:10141000AEDFA1960FB6F894DEBF0FBECDBFDF9151
:10142000CF911F910F91FF90EF907F906F905F9001
:101430004F9008952115310541F4DC01ED91FC91A7
:101440000190F081E02D642F0994ADCF9A01462FD1
:1014500050E060E070E0EECF813039F018F082307B
:1014600051F0089510926E00089580916F008D7F65
:1014700080936F000895809170008D7F809370003D
:1014800081E08093B0008091B100887F8460809378
:10149000B1001092B3000895CF93C82F80919D01A1
:1014A0008C1307C0EEEAF0E0E4918FEF80939D018A
:1014B00001C0EFEF8E2FD0DF60E08C2FCF9116CDE3
:1014C0001F920F920FB60F9211242F933F934F93B9
:1014D0005F936F937F938F939F93AF93BF93EF939C
:1014E000FF938091650290916602A0916702B0918E
:1014F0006802892B8A2B8B2B51F180916202E0913B
:101500006302F09164029081892780838091650253
:1015100090916602A0916702B091680218161906B0
:101520001A061B06BCF48091650290916602A09198
:101530006702B09168020197A109B1098093650221
:1015400090936602A0936702B093680203C08091F3
:101550009D01A2DFFF91EF91BF91AF919F918F917C
:101560007F916F915F914F913F912F910F900FBE9F
:101570000F901F90189540E855E260E070E080E021
:1015800090E000C026E08FEB91E095CD1F920F9286
:101590000FB60F9211242F933F934F935F936F9346
:1015A0007F938F939F93AF93BF93EF93FF938EE9B6
:1015B0009EEA909385008093840032D0FF91EF9152
:1015C000BF91AF919F918F917F916F915F914F915B
:1015D0003F912F910F900FBE0F901F9018958EE99D
:1015E0009EEA9093850080938400AFE6B0E08C91F2
:1015F0008E7F8C93E0E8F0E080818C7F8083E1E84F
:10160000F0E08081877E808380818260808380811A
:101610008A7F80838C9181608C93089581E0089506
:10162000CF93DF9300D0CDB7DEB780916C0291E00D
:10163000980F90936C02882349F021E030E03093BA
:101640006F0220936E0280936C0239C0CE01019626
:101650000E94830078940E948B00F89480916C0221
:10166000815080936C028A81882389F080916B027B
:1016700091E0980F90936B02882349F021E030E0CD
:1016800030936F0220936E0280936B0218C080919A
:101690006B028823A1F080916D02811110C081E05E
:1016A00080936D02789468D8F89480916B02815091
:1016B00080936B0280916D02815080936D020F9038
:1016C0000F90DF91CF9108950F931F93CF93DF93E6
:1016D0001F92CDB7DEB781E08983A4DB4CDF009198
:1016E0009E0110919F01F8011182108211DA77DFBB
:1016F00081E0F80120813181232B09F080E089838A
:101700007894789489818823C1F081E0F801208160
:101710003181232B09F480E0809369029091690262
:1017200081E0911180E089838981882311F076DF3F
:1017300002C080E090E08983E5CFDADAF89480E0B7
:1017400090E00F90DF91CF911F910F910895505825
:10175000BB27AA270ED003C1F4D030F0F9D020F077
:1017600031F49F3F11F41EF4E9C00EF4E095E7FB5D
:10177000DFC0E92F05D180F3BA176207730784072A
:10178000950718F071F49EF51DC10EF4E0950B2E2F
:10179000BA2FA02D0B01B90190010C01CA01A001C3
:1017A0001124FF27591B99F0593F50F4503E68F11E
:1017B0001A16F040A22F232F342F4427585FF3CF5F
:1017C000469537952795A795F0405395C9F77EF430
:1017D0001F16BA0B620B730B840BBAF09150A1F079
:1017E000FF0FBB1F661F771F881FC2F70EC0BA0FFF
:1017F000621F731F841F48F4879577956795B79587
:10180000F7959E3F08F0B3CF9395880F08F099277E
:10181000EE0F9795879508950CD0A1C099D040F010
:1018200090D030F021F45F3F19F082C05111CBC04D
:1018300085C0A6D098F39923C9F35523B1F3951B1E
:10184000550BBB27AA2762177307840738F09F5FE1
:101850005F4F220F331F441FAA1FA9F333D00E2E50
:101860003AF0E0E830D091505040E695001CCAF7BD
:1018700029D0FE2F27D0660F771F881FBB1F261782
:1018800037074807AB07B0E809F0BB0B802DBF0155
:10189000FF2793585F4F2AF09E3F510568F048C0DC
:1018A00092C05F3FECF3983EDCF3869577956795A1
:1018B000B795F7959F5FC9F7880F911D9695879506
:1018C00097F90895E1E0660F771F881FBB1F621725
:1018D00073078407BA0720F0621B730B840BBA0BE3
:1018E000EE1F88F7E0950895990F0008550FAA0B91
:1018F000E0E8FEEF16161706E807F907C0F0121623
:101900001306E407F50798F0621B730B840B950B25
:1019100039F40A2661F0232B242B252B21F408957A
:101920000A2609F4A140A6958FEF811D811D089517
:1019300097F99F6780E870E060E008959FEF80EC82
:10194000089500240A941616170618060906089525
:1019500000240A9412161306140605060895092E8B
:101960000394000C11F4882352F0BB0F40F4BF2BFA
:1019700011F460FF04C06F5F7F4F8F4F9F4F08953A
:1019800057FD9058440F551F59F05F3F71F0479530
:10199000880F97FB991F61F09F3F79F08795089515
:1019A000121613061406551FF2CF4695F1DF08C034
:1019B000161617061806991FF1CF86957105610551
:1019C00008940895E894BB2766277727CB0197F9F9
:1019D00008958ADF08F48FEF08950BD0C0CFB1DFF0
:1019E00028F0B6DF18F0952309F0A2CFA7CF112475
:1019F000EACFC6DFA0F3959FD1F3950F50E0551FB6
:101A0000629FF001729FBB27F00DB11D639FAA2753
:101A1000F00DB11DAA1F649F6627B00DA11D661FA2
:101A2000829F2227B00DA11D621F739FB00DA11DC3
:101A3000621F839FA00D611D221F749F3327A00D7D
:101A4000611D231F849F600D211D822F762F6A2F19
:101A500011249F5750408AF0E1F088234AF0EE0F9E
:101A6000FF1FBB1F661F771F881F91505040A9F7AB
:101A70009E3F510570F05CCFA6CF5F3FECF3983EE0
:101A8000DCF3869577956795B795F795E7959F5F12
:101A9000C1F7FE2B880F911D9695879597F90895AC
:101AA000A1E21A2EAA1BBB1BFD010DC0AA1FBB1F62
:101AB000EE1FFF1FA217B307E407F50720F0A21BD4
:101AC000B30BE40BF50B661F771F881F991F1A9441
:101AD00069F760957095809590959B01AC01BD016B
:101AE000CF010895EE0FFF1F0590F491E02D0994AA
:041AF000F894FFCF98
:101AF4000000D1038000010000000000404000000D
:101B0400B0410000000000000000000000000000E0
:101B140000009E962D3E0000000033897CBFD11F3B
:101B24002A3F00000040D0C49D3D00000000EFE4C7
:101B34007DBFAE8E993E00000040D4877E3F0000FA
:101B4400000000000000A850B0BFEE3E473F000078
:101B54000000685A3C3F000000C0F817003F000036
:101B64000000BF1948BF000000008418613E000057
:101B740000C0D4877E3F0200010001000100010083
:101B84000100010001000100F379067906FFD0028B
:101B94000000000015088C09A507BF07B107F4076A
:061BA400000000004209F0
:00000001FF
